{
  "_format": "hh-sol-artifact-1",
  "contractName": "HelloWorld",
  "sourceName": "contracts/HelloWorld.sol",
  "abi": [
    {
      "inputs": [
        {
          "internalType": "string",
          "name": "initMessage",
          "type": "string"
        }
      ],
      "stateMutability": "nonpayable",
      "type": "constructor"
    },
    {
      "anonymous": false,
      "inputs": [
        {
          "indexed": true,
          "internalType": "address",
          "name": "_from",
          "type": "address"
        },
        {
          "indexed": true,
          "internalType": "string",
          "name": "_tenant",
          "type": "string"
        },
        {
          "indexed": false,
          "internalType": "uint256",
          "name": "_rent",
          "type": "uint256"
        }
      ],
      "name": "RentPaid",
      "type": "event"
    },
    {
      "anonymous": false,
      "inputs": [
        {
          "indexed": false,
          "internalType": "string",
          "name": "oldStr",
          "type": "string"
        },
        {
          "indexed": false,
          "internalType": "string",
          "name": "newStr",
          "type": "string"
        }
      ],
      "name": "UpdatedMessages",
      "type": "event"
    },
    {
      "inputs": [],
      "name": "message",
      "outputs": [
        {
          "internalType": "string",
          "name": "",
          "type": "string"
        }
      ],
      "stateMutability": "view",
      "type": "function"
    },
    {
      "inputs": [
        {
          "internalType": "string",
          "name": "newMessage",
          "type": "string"
        }
      ],
      "name": "update",
      "outputs": [],
      "stateMutability": "nonpayable",
      "type": "function"
    }
  ],
  "bytecode": "0x60806040523480156200001157600080fd5b5060405162000a4738038062000a478339818101604052810190620000379190620002a4565b80600090805190602001906200004f92919062000057565b50506200035a565b828054620000659062000324565b90600052602060002090601f016020900481019282620000895760008555620000d5565b82601f10620000a457805160ff1916838001178555620000d5565b82800160010185558215620000d5579182015b82811115620000d4578251825591602001919060010190620000b7565b5b509050620000e49190620000e8565b5090565b5b8082111562000103576000816000905550600101620000e9565b5090565b6000604051905090565b600080fd5b600080fd5b600080fd5b600080fd5b6000601f19601f8301169050919050565b7f4e487b7100000000000000000000000000000000000000000000000000000000600052604160045260246000fd5b620001708262000125565b810181811067ffffffffffffffff8211171562000192576200019162000136565b5b80604052505050565b6000620001a762000107565b9050620001b5828262000165565b919050565b600067ffffffffffffffff821115620001d857620001d762000136565b5b620001e38262000125565b9050602081019050919050565b60005b8381101562000210578082015181840152602081019050620001f3565b8381111562000220576000848401525b50505050565b60006200023d6200023784620001ba565b6200019b565b9050828152602081018484840111156200025c576200025b62000120565b5b62000269848285620001f0565b509392505050565b600082601f8301126200028957620002886200011b565b5b81516200029b84826020860162000226565b91505092915050565b600060208284031215620002bd57620002bc62000111565b5b600082015167ffffffffffffffff811115620002de57620002dd62000116565b5b620002ec8482850162000271565b91505092915050565b7f4e487b7100000000000000000000000000000000000000000000000000000000600052602260045260246000fd5b600060028204905060018216806200033d57607f821691505b60208210811415620003545762000353620002f5565b5b50919050565b6106dd806200036a6000396000f3fe608060405234801561001057600080fd5b50600436106100365760003560e01c80633d7403a31461003b578063e21f37ce14610057575b600080fd5b610055600480360381019061005091906103b2565b610075565b005b61005f610127565b60405161006c9190610483565b60405180910390f35b806000908051906020019061008b9291906101b5565b507ff91d506d7335e83e4869a58cd98e0557cdcef6f507ba1e52725521305626d05b6040516100b99061053d565b60405180910390a16040516100cd906105c7565b60405180910390203373ffffffffffffffffffffffffffffffffffffffff167fed50f965bb41e8192d57bdadc4bc0c5295f8ae70894374beec05ddf4c797f5fc607b60405161011c919061062b565b60405180910390a350565b6000805461013490610675565b80601f016020809104026020016040519081016040528092919081815260200182805461016090610675565b80156101ad5780601f10610182576101008083540402835291602001916101ad565b820191906000526020600020905b81548152906001019060200180831161019057829003601f168201915b505050505081565b8280546101c190610675565b90600052602060002090601f0160209004810192826101e3576000855561022a565b82601f106101fc57805160ff191683800117855561022a565b8280016001018555821561022a579182015b8281111561022957825182559160200191906001019061020e565b5b509050610237919061023b565b5090565b5b8082111561025457600081600090555060010161023c565b5090565b6000604051905090565b600080fd5b600080fd5b600080fd5b600080fd5b6000601f19601f8301169050919050565b7f4e487b7100000000000000000000000000000000000000000000000000000000600052604160045260246000fd5b6102bf82610276565b810181811067ffffffffffffffff821117156102de576102dd610287565b5b80604052505050565b60006102f1610258565b90506102fd82826102b6565b919050565b600067ffffffffffffffff82111561031d5761031c610287565b5b61032682610276565b9050602081019050919050565b82818337600083830152505050565b600061035561035084610302565b6102e7565b90508281526020810184848401111561037157610370610271565b5b61037c848285610333565b509392505050565b600082601f8301126103995761039861026c565b5b81356103a9848260208601610342565b91505092915050565b6000602082840312156103c8576103c7610262565b5b600082013567ffffffffffffffff8111156103e6576103e5610267565b5b6103f284828501610384565b91505092915050565b600081519050919050565b600082825260208201905092915050565b60005b8381101561043557808201518184015260208101905061041a565b83811115610444576000848401525b50505050565b6000610455826103fb565b61045f8185610406565b935061046f818560208601610417565b61047881610276565b840191505092915050565b6000602082019050818103600083015261049d818461044a565b905092915050565b7f5959595900000000000000000000000000000000000000000000000000000000600082015250565b60006104db600483610406565b91506104e6826104a5565b602082019050919050565b7f5858585800000000000000000000000000000000000000000000000000000000600082015250565b6000610527600483610406565b9150610532826104f1565b602082019050919050565b60006040820190508181036000830152610556816104ce565b905081810360208301526105698161051a565b9050919050565b600081905092915050565b7f4242420000000000000000000000000000000000000000000000000000000000600082015250565b60006105b1600383610570565b91506105bc8261057b565b600382019050919050565b60006105d2826105a4565b9150819050919050565b6000819050919050565b6000819050919050565b6000819050919050565b600061061561061061060b846105dc565b6105f0565b6105e6565b9050919050565b610625816105fa565b82525050565b6000602082019050610640600083018461061c565b92915050565b7f4e487b7100000000000000000000000000000000000000000000000000000000600052602260045260246000fd5b6000600282049050600182168061068d57607f821691505b602082108114156106a1576106a0610646565b5b5091905056fea26469706673582212205c259547be8bda223d1fb9fad3397a23820a6bf2783281942d4a98b4aefb7f7764736f6c63430008090033",
  "linkReferences": {},
  "deployedLinkReferences": {}
}