{
  "_format": "hh-sol-artifact-1",
  "contractName": "Rent",
  "sourceName": "contracts/coba.sol",
  "abi": [
    {
      "anonymous": false,
      "inputs": [
        {
          "indexed": true,
          "internalType": "address",
          "name": "_from",
          "type": "address"
        },
        {
          "indexed": true,
          "internalType": "string",
          "name": "_tenant",
          "type": "string"
        },
        {
          "indexed": false,
          "internalType": "uint256",
          "name": "_rent",
          "type": "uint256"
        }
      ],
      "name": "RentPaid",
      "type": "event"
    },
    {
      "inputs": [
        {
          "internalType": "string",
          "name": "_tenant",
          "type": "string"
        }
      ],
      "name": "deposit",
      "outputs": [],
      "stateMutability": "payable",
      "type": "function"
    }
  ],
  "bytecode": "0x608060405234801561001057600080fd5b5061031d806100206000396000f3fe60806040526004361061001e5760003560e01c8063a26e118614610023575b600080fd5b61003d600480360381019061003891906101fe565b61003f565b005b60405161004b9061029e565b60405180910390203373ffffffffffffffffffffffffffffffffffffffff167fed50f965bb41e8192d57bdadc4bc0c5295f8ae70894374beec05ddf4c797f5fc3460405161009991906102cc565b60405180910390a350565b6000604051905090565b600080fd5b600080fd5b600080fd5b600080fd5b6000601f19601f8301169050919050565b7f4e487b7100000000000000000000000000000000000000000000000000000000600052604160045260246000fd5b61010b826100c2565b810181811067ffffffffffffffff8211171561012a576101296100d3565b5b80604052505050565b600061013d6100a4565b90506101498282610102565b919050565b600067ffffffffffffffff821115610169576101686100d3565b5b610172826100c2565b9050602081019050919050565b82818337600083830152505050565b60006101a161019c8461014e565b610133565b9050828152602081018484840111156101bd576101bc6100bd565b5b6101c884828561017f565b509392505050565b600082601f8301126101e5576101e46100b8565b5b81356101f584826020860161018e565b91505092915050565b600060208284031215610214576102136100ae565b5b600082013567ffffffffffffffff811115610232576102316100b3565b5b61023e848285016101d0565b91505092915050565b600081905092915050565b7f4242420000000000000000000000000000000000000000000000000000000000600082015250565b6000610288600383610247565b915061029382610252565b600382019050919050565b60006102a98261027b565b9150819050919050565b6000819050919050565b6102c6816102b3565b82525050565b60006020820190506102e160008301846102bd565b9291505056fea264697066735822122099335525e731e7a18f40217dc29ae84fde581305a2ecb78ddf945087e932972064736f6c63430008090033",
  "linkReferences": {},
  "deployedLinkReferences": {}
}