{
  "_format": "hh-sol-artifact-1",
  "contractName": "HelloWorld",
  "sourceName": "contracts/HelloWorld.sol",
  "abi": [
    {
      "inputs": [
        {
          "internalType": "string",
          "name": "initMessage",
          "type": "string"
        }
      ],
      "stateMutability": "nonpayable",
      "type": "constructor"
    },
    {
      "anonymous": false,
      "inputs": [
        {
          "indexed": false,
          "internalType": "string",
          "name": "oldStr",
          "type": "string"
        },
        {
          "indexed": false,
          "internalType": "string",
          "name": "newStr",
          "type": "string"
        }
      ],
      "name": "UpdatedMessages",
      "type": "event"
    },
    {
      "inputs": [],
      "name": "messagex",
      "outputs": [
        {
          "internalType": "string",
          "name": "",
          "type": "string"
        }
      ],
      "stateMutability": "view",
      "type": "function"
    },
    {
      "inputs": [
        {
          "internalType": "string",
          "name": "newMessage",
          "type": "string"
        }
      ],
      "name": "update",
      "outputs": [],
      "stateMutability": "nonpayable",
      "type": "function"
    }
  ],
  "bytecode": "0x60806040523480156200001157600080fd5b506040516200090d3803806200090d8339818101604052810190620000379190620002a4565b80600090805190602001906200004f92919062000057565b50506200035a565b828054620000659062000324565b90600052602060002090601f016020900481019282620000895760008555620000d5565b82601f10620000a457805160ff1916838001178555620000d5565b82800160010185558215620000d5579182015b82811115620000d4578251825591602001919060010190620000b7565b5b509050620000e49190620000e8565b5090565b5b8082111562000103576000816000905550600101620000e9565b5090565b6000604051905090565b600080fd5b600080fd5b600080fd5b600080fd5b6000601f19601f8301169050919050565b7f4e487b7100000000000000000000000000000000000000000000000000000000600052604160045260246000fd5b620001708262000125565b810181811067ffffffffffffffff8211171562000192576200019162000136565b5b80604052505050565b6000620001a762000107565b9050620001b5828262000165565b919050565b600067ffffffffffffffff821115620001d857620001d762000136565b5b620001e38262000125565b9050602081019050919050565b60005b8381101562000210578082015181840152602081019050620001f3565b8381111562000220576000848401525b50505050565b60006200023d6200023784620001ba565b6200019b565b9050828152602081018484840111156200025c576200025b62000120565b5b62000269848285620001f0565b509392505050565b600082601f8301126200028957620002886200011b565b5b81516200029b84826020860162000226565b91505092915050565b600060208284031215620002bd57620002bc62000111565b5b600082015167ffffffffffffffff811115620002de57620002dd62000116565b5b620002ec8482850162000271565b91505092915050565b7f4e487b7100000000000000000000000000000000000000000000000000000000600052602260045260246000fd5b600060028204905060018216806200033d57607f821691505b60208210811415620003545762000353620002f5565b5b50919050565b6105a3806200036a6000396000f3fe608060405234801561001057600080fd5b50600436106100365760003560e01c80633c2b57421461003b5780633d7403a314610059575b600080fd5b610043610075565b6040516100509190610321565b60405180910390f35b610073600480360381019061006e919061048c565b610103565b005b6000805461008290610504565b80601f01602080910402602001604051908101604052809291908181526020018280546100ae90610504565b80156100fb5780601f106100d0576101008083540402835291602001916100fb565b820191906000526020600020905b8154815290600101906020018083116100de57829003601f168201915b505050505081565b600080805461011190610504565b80601f016020809104026020016040519081016040528092919081815260200182805461013d90610504565b801561018a5780601f1061015f5761010080835404028352916020019161018a565b820191906000526020600020905b81548152906001019060200180831161016d57829003601f168201915b5050505050905081600090805190602001906101a79291906101e5565b507ff91d506d7335e83e4869a58cd98e0557cdcef6f507ba1e52725521305626d05b81836040516101d9929190610536565b60405180910390a15050565b8280546101f190610504565b90600052602060002090601f016020900481019282610213576000855561025a565b82601f1061022c57805160ff191683800117855561025a565b8280016001018555821561025a579182015b8281111561025957825182559160200191906001019061023e565b5b509050610267919061026b565b5090565b5b8082111561028457600081600090555060010161026c565b5090565b600081519050919050565b600082825260208201905092915050565b60005b838110156102c25780820151818401526020810190506102a7565b838111156102d1576000848401525b50505050565b6000601f19601f8301169050919050565b60006102f382610288565b6102fd8185610293565b935061030d8185602086016102a4565b610316816102d7565b840191505092915050565b6000602082019050818103600083015261033b81846102e8565b905092915050565b6000604051905090565b600080fd5b600080fd5b600080fd5b600080fd5b7f4e487b7100000000000000000000000000000000000000000000000000000000600052604160045260246000fd5b610399826102d7565b810181811067ffffffffffffffff821117156103b8576103b7610361565b5b80604052505050565b60006103cb610343565b90506103d78282610390565b919050565b600067ffffffffffffffff8211156103f7576103f6610361565b5b610400826102d7565b9050602081019050919050565b82818337600083830152505050565b600061042f61042a846103dc565b6103c1565b90508281526020810184848401111561044b5761044a61035c565b5b61045684828561040d565b509392505050565b600082601f83011261047357610472610357565b5b813561048384826020860161041c565b91505092915050565b6000602082840312156104a2576104a161034d565b5b600082013567ffffffffffffffff8111156104c0576104bf610352565b5b6104cc8482850161045e565b91505092915050565b7f4e487b7100000000000000000000000000000000000000000000000000000000600052602260045260246000fd5b6000600282049050600182168061051c57607f821691505b602082108114156105305761052f6104d5565b5b50919050565b6000604082019050818103600083015261055081856102e8565b9050818103602083015261056481846102e8565b9050939250505056fea2646970667358221220e9c1ddbf4d37903dff5a8ff25b6aa41dacdd210bf9df5f9b0082d5772bca260564736f6c63430008090033",
  "linkReferences": {},
  "deployedLinkReferences": {}
}